:10000000501F002061800100E17D0100E5500000EB
:100010006F8001006F8001006F8001006F80010020
:100020000000000000000000000000006F800100E0
:100030006F800100000000002F500000C5F9010092
:10004000BB640100EB63010077650100C16501003D
:1000500089700100BB640100EB630100776501005A
:10006000C165010000000000000000000000000069
:100070000000000000000000000000000000000080
:100080000000000000000000000000000000000070
:100090000000000000000000000000000000000060
:1000A0000000000000000000000000000000000050
:1000B0000000000000000000000000000000000040
:1000C0000000000000000000000000000000000030
:1000D0000000000000000000000000000000000020
:1000E0000000000000000000000000000000000010
:1000F0000000000000000000000000000000000000
:1001000000000000000000000000000000000000EF
:1001100000000000000000000000000000000000DF
:1001200000000000000000000000000000000000CF
:1001300000000000000000000000000000000000BF
:1001400000000000000000000000000000000000AF
:10015000000000000000000000000000000000009F
:10016000000000000000000000000000000000008F
:10017000000000000000000000000000000000007F
:10018000000000000000000000000000000000006F
:10019000000000000000000000000000000000005F
:1001A000000000000000000000000000000000004F
:1001B000000000000000000000000000000000003F
:1001C000FFFFFFFFFFFFFFFFFFFFFFFFFFFFFFFF3F
:1001D000FFFFFFFFFFFFFFFFFFFFFFFFFFFFFFFF2F
:1001E000FFFFFFFFFFFFFFFFFFFFFFFFFFFFFFFF1F
:1001F000FFFFFFFFFFFFFFFFFFFFFFFFFFFFFFFF0F
:1002000010B5054C237833B9044B13B1044800E012
:1002100000BF0123237010BD58080020000000001B
:100220003456030008B5034B1BB10349034800E0F3
:1002300000BF08BD000000005C0800203456030029
:1002400080B582B000AF7860034802F009FC00BFBF
:100250000837BD4680BD00BF1CC5020080B582B016
:1002600000AF134810F002F903467B60796811482B
:1002700002F0F6FB786800230F4A002110F042F8E4
:1002800038603B68002B02D00C4802F0E9FB7B6829
:100290000121184610F064F838603B68002B02D04A
:1002A000074802F0DDFB00BF0837BD4680BD00BF38
:1002B00030C5020038C502004102000050C50200EE
:1002C00068C5020080B400AF034B1B681846BD46EA
:1002D0005DF8047B704700BF7408002080B582B0D1
:1002E00000AF1B4B1B68002B02D0194B1B689847B3
:1002F00004F086FE7860174B1B680133154A1360C3
:1003000003F0FAFE38603B689B6C5A1E3B689A64A7
:100310003B689B6C002B12D13B685A6C3B689A641B
:100320003B6893F8343043F00803DAB23B6883F853
:100330003420786804F068FE03F0EAFB02E0786895
:1003400004F062FE04F0CEFC00BF0837BD4680BD5D
:10035000780800207408002080B485B000AF786071
:100360007B68002B03DA4FF0FF33FB6027E07B68EC
:10037000164A82FB03129211DB17D31A4FF47A72DA
:1003800002FB03F3FB607A68104B83FB02139911A5
:10039000D317CB1A4FF47A7101FB03F3D31A4FF43E
:1003A0007A7202FB03F303F2E733084A82FB03127B
:1003B0009211DB17D31A1A46FB681344FB60FB68E3
:1003C00018461437BD465DF8047B7047D34D621064
:1003D00080B400AF00231846BD465DF8047B70472B
:1003E00080B400AF00231846BD465DF8047B70471B
:1003F00080B400AF00231846BD465DF8047B70470B
:1004000080B400AF00231846BD465DF8047B7047FA
:1004100080B582B000AF094B7B6005E07B681B684C
:1004200098477B6804337B607B68054A9342F5D329
:1004300000BF00BF0837BD4680BD00BFD8C4020062
:10044000E4C4020080B582B000AF094B7B6005E0D8
:100450007B681B6898477B6804337B607B68054A30
:100460009342F5D300BF00BF0837BD4680BD00BF33
:10047000E4C4020004C5020080B500AF00F036F805
:100480000023184680BD80B582B000AF7860FFF7CA
:10049000D9FF15F00FFA00BF0837BD4680BDFFFF3A
:1004A00080B584B002AF142301930A2300934FF464
:1004B0000063002209490A4803F0CCFE78607B689B
:1004C000002B04D1D5220749074802F021FC7868A7
:1004D00003F01EFE00BF0837BD4680BD8704000044
:1004E00098C50200B0C50200A0C5020080B500AFEB
:1004F00004F086FD1FF070FA01F072FE04F032FD88
:1005000003F0CEFAFFF7CCFF04F046FD00F00CFB41
:1005100003F0E2FA0023184680BD80B483B000AF38
:1005200078607B687A685A607B685A687B681A6072
:1005300000BF0C37BD465DF8047B704780B582B0C4
:1005400000AF78607B68002B04D12522074908485A
:1005500002F0DEFB7B6800221A607B6804331846D9
:10056000FFF7DBFF00BF0837BD4680BD94C6020021
:10057000C4C5020080B584B000AFF860B96013460E
:10058000FB80FB68002B02D14FF0FF3320E0B868FE
:1005900000F058F80346002B02D04FF0FF3317E06D
:1005A000FB68BA680921184602F0ECFFFB68FA887C
:1005B000DA82FB6800229A76FB6800221A83FB68C5
:1005C0000022DA63FB6840331846FFF7B7FF0023C9
:1005D00018461037BD4680BD80B582B000AF786048
:1005E0007B68002B04D156221249134802F090FB7D
:1005F0007B68184603F022F90346092B04D05722E2
:100600000C490E4802F084FB7B68184603F0F8F8AA
:100610000346002B04D158220649094802F078FB12
:100620007B68184603F014F8002318460837BD46C7
:1006300080BD00BFA4C60200D8C50200E8C5020004
:1006400024C6020080B582B000AF786009217868C6
:1006500003F00EF9034618460837BD4680BDFFFF7C
:1006600080B584B000AF78600B467B800023FB60D0
:100670007B68002B04D1D0223749384802F048FB70
:100680007B68184603F0DAF80346092B04D0D12220
:100690003149334802F03CFB7B68DB8A03F01003EE
:1006A000002B14D17B685B6A002B09D07B685B6AE6
:1006B00078689847F860FB68002B01D0FB6847E03A
:1006C0007B68DB8A43F010039AB27B68DA827B682E
:1006D000DB8A03F00803002B08D07B681B8B03F038
:1006E0000803002B02D06FF0060331E07B689B6AA1
:1006F000002B07D07B689B6A7A88114678689847F8
:10070000F86007E07B8823F0F0031B051B0D9AB20D
:100710007B681A83FB68002B03D0FB6813F1060F7C
:1007200015D17B681B8B43F008039AB27B681A8350
:100730007B689B7E0133DAB27B689A767B689B7E0E
:10074000002B04D1FF220449064802F0E1FAFB68BD
:1007500018461037BD4680BDBCC60200D8C5020091
:10076000E8C5020080C6020080B584B000AF7860A2
:100770000023FB607B68002B05D14FF489721E4972
:100780001E4802F0C5FA7B68184603F057F8034686
:10079000092B05D040F213121749194802F0B8FA94
:1007A0007B689B7E002B02D14FF0FF331FE07B68FC
:1007B0009B7E013BDAB27B689A767B689B7E002B3E
:1007C00001D0002313E07B68DB6A002B04D07B6838
:1007D000DB6A78689847F860FB68002B03D0FB68F9
:1007E00013F1060F02D17B6800221A83FB681846BA
:1007F0001037BD4680BD00BFCCC60200D8C5020080
:10080000E8C5020090B585B000AFF860B9607A60C5
:100810003B60FB68002B05D14FF4A07218491948C2
:1008200002F076FAFB68184603F008F80346092B35
:1008300005D040F241121249134802F069FAFB68F0
:100840009B7E002B05D14FF0FF3001F081FA002391
:1008500011E0FB681B6B002B08D0FB681C6B3B682E
:100860007A68B968F868A047034604E06FF00500AD
:1008700001F06EFA002318461437BD4690BD00BF44
:10088000DCC60200D8C50200E8C5020090B585B0FC
:1008900000AFF860B9607A603B60FB68002B05D15F
:1008A00040F26B121849194802F032FAFB681846F8
:1008B00002F0C4FF0346092B05D04FF4B67212496B
:1008C000134802F025FAFB689B7E002B05D14FF000
:1008D000FF3001F03DFA002311E0FB685B6B002B59
:1008E00008D0FB685C6B3B687A68B968F868A04719
:1008F000034604E06FF0050001F02AFA00231846D1
:100900001437BD4690BD00BFECC60200D8C502003A
:10091000E8C5020080B584B000AFF860B9607A60C5
:10092000FB68002B05D140F28F121149114802F0EB
:10093000EFF9FB68184602F081FF0346092B05D04A
:100940004FF4C8720A490C4802F0E2F9FB689B6B4D
:10095000002B07D0FB689B6B7A68B968F8689847EA
:10096000034601E06FF0050318461037BD4680BD11
:10097000FCC60200D8C50200E8C5020080B582B0FE
:1009800000AF786039607B68002B05D140F2AB1274
:100990000C490D4802F0BCF97B68184602F04EFF86
:1009A0000346092B05D04FF4D6720649074802F0DA
:1009B000AFF97B683A68DA61002318460837BD460C
:1009C00080BD00BF10C70200D8C50200E8C5020004
:1009D00080B483B000AF786039607B681B683A6888
:1009E0005A607B681A683B681A607B683A681A60CC
:1009F0003B687A685A6000BF0C37BD465DF8047BDF
:100A0000704780B483B000AF78607B681B687A68F9
:100A100052685A607B685B687A6812681A607B6803
:100A20007A685A607B685A687B681A6000BF0C3726
:100A3000BD465DF8047B704780B582B000AF78603A
:100A40007B68143319460348FFF7C2FF00BF08371D
:100A5000BD4680BD0000002090B583B000AF0023EC
:100A60007B600D4B3B603B681B683A689A420ED036
:100A70003B681B68143B7B6004F0C2FA04467B6849
:100A800014331846FFF7BDFF204604F0BDFA7B681B
:100A900018460C37BD4690BD0000002080B582B0DE
:100AA00000AFFFF7D9FF78607B68002B1BD07B6815
:100AB0009B6F3B603B68002B02D03B68786898478F
:100AC000786802F09DFE0346012B03D1786802F09E
:100AD000BFFDE6E77B689B6A184602F0E7F8786896
:100AE00002F050FEDDE700BF00BF0837BD4680BD05
:100AF00080B584B000AF78600023FB600CE0094A49
:100B0000FB6852F82330BB60BB68002B01D0BB6888
:100B10009847FB680133FB60FB68032BEFD9FFF7B5
:100B2000BDFFE9E7FC09002080B588B004AF0023D1
:100B3000FB6024E03B1DFA681549184601F038FFB8
:100B4000FB68DB01134A9818FB681B02124A134426
:100B5000391D202203921F2202924FF480720192CB
:100B6000009300230D4A03F08FFAFB68DB01094A6A
:100B70001344184603F0CCFAFB680133FB60FB68B2
:100B8000002BD7D000BF00BF1037BD4680BD00BFCF
:100B90002CC702007C080020FC080020F10A00009D
:100BA00080B483B000AF78607B687A685A607B68F5
:100BB0005A687B681A6000BF0C37BD465DF8047B3D
:100BC000704780B483B000AF786039607B685B6841
:100BD0003A681A607B685A683B685A607B683A6872
:100BE0005A603B687A681A6000BF0C37BD465DF8F2
:100BF000047B704780B483B000AF78607B681B686B
:100C00007A689A420CBF01230023DBB218460C37E6
:100C1000BD465DF8047B704780B582B000AF786058
:100C20007B6814331846FFF7BBFF002318460837CC
:100C3000BD4680BD80B586B000AFF860B960134690
:100C4000FB71B86803F074FCFB79002B02D0012B18
:100C500007D031E0BB6814331946F868FFF7B1FFDD
:100C600031E0FB681B687B6117E07B69143B3B61EB
:100C7000BB6893F835203B6993F835309A4209D226
:100C80003B6903F11402BB68143319461046FFF7A1
:100C900098FF06E07B691B687B617A69FB689A4272
:100CA000E3D17A69FB689A420CD1BB6814331946C8
:100CB000F868FFF786FF05E0A3220549054802F022
:100CC00027F800E000BF002318461837BD4680BD56
:100CD0005CCC020034C7020080B584B000AF7860FD
:100CE0007B681B68143BFB60F86803F085FC0023FD
:100CF00018461037BD4680BD90B585B000AF78600E
:100D000012E004F07DF903461C467B681B68143B27
:100D1000FB60FB684FF0FF321A63F86803F06CFC6D
:100D20002346184604F070F97868FFF763FF03461E
:100D3000002BE6D0002318461437BD4690BDFFFFB8
:100D400080B584B000AFF860B9607A60FB70FB6872
:100D5000002B05D14FF496721749184801F0D8FFBF
:100D60007B68B3F5803F05D340F22D121249144839
:100D700001F0CEFFFB78002B08D0FB78012B05D0CB
:100D80004FF497720C490F4801F0C2FFFB68BA6834
:100D90000221184602F0F6FBFB681846FFF73CFFFD
:100DA0007B689AB2FB689A83FB68FA785A720023D0
:100DB00018461037BD4680BD14CC020038C702006B
:100DC00048C702005CC7020080B582B000AF7860FF
:100DD0007B68002B05D14FF4AB721649164801F021
:100DE00097FF7B68184602F029FD0346022B05D0C9
:100DF00040F257120F49114801F08AFF7B681846EC
:100E000002F0FEFC0346002B05D14FF4AC720949F9
:100E10000B4801F07DFF7B6814331846FFF76CFF29
:100E20007B68184602F014FC002318460837BD46BC
:100E300080BD00BF20CC020038C7020098C7020066
:100E4000E0C7020080B586B000AFF860B960134615
:100E5000FB71BB68B3F5803F05D340F289121F498F
:100E60001F4801F055FFFB79002B08D0FB79012BBF
:100E700005D04FF4C57219491A4801F049FF04F032
:100E8000BFF8786100F050FF0346002B09D01349EA
:100E9000154801F0E5FD4FF4C6721049134801F002
:100EA00037FF786904F0B0F8F968022002F0FEFB21
:100EB00038613B69002B01D13B690BE03B69184667
:100EC000FFF7AAFEBB689AB23B699A833B69FA793D
:100ED0005A723B6918461837BD4680BD30CC0200B7
:100EE00048C702005CC7020010C8020034C70200F5
:100EF00080B584B000AF78607B68002B05D14FF4DB
:100F0000DB722049204801F003FF7B68184602F09D
:100F100095FC0346022B05D040F2B71219491B4835
:100F200001F0F6FE7B68184602F06AFC0346002BCF
:100F300005D04FF4DC721349154801F0E9FE04F0C6
:100F40005FF8F86000F0F0FE0346002B09D00D4971
:100F5000104801F085FD4FF4DD720A490E4801F09A
:100F6000D7FEF86804F050F87B6814331846FFF792
:100F7000C3FE7B68184602F005FC002318461037B4
:100F8000BD4680BD40CC020038C7020098C70200B1
:100F900038C8020010C8020034C7020090B587B0FC
:100FA00000AF786039607B68002B05D140F2E51214
:100FB0005549564801F0ACFE7B68184602F03EFCED
:100FC0000346022B05D04FF4F3724F49504801F00D
:100FD0009FFE504B1B68002B04D04E4B1B687A6859
:100FE0001046984704F00CF804467B689B8B002B56
:100FF00009D07B689B8B013B9AB27B689A83204621
:1010000004F002F871E03B68002B05D1204603F0A4
:10101000FBFF6FF0010372E003F0F2FF786102F072
:1010200013FF0346002B09D037493B4801F018FD58
:1010300040F206223449394801F06AFE03F0E0FF2D
:10104000386103F059F80346002B09D12E49344882
:1010500001F006FD40F206222B49304801F058FE0F
:1010600003F0CEFFF86000F05FFE0346002B09D0CE
:1010700025492C4801F0F4FC40F206222249274879
:1010800001F046FEF86803F0BFFF386903F0BCFFCB
:10109000786903F0B9FF03F02FF8B860BB6800224D
:1010A0001A637B6803F114007B685B7A1A46B9689F
:1010B000FFF7C0FD3B68002B0BDDBB684C333A46A5
:1010C0000021184603F092FDBB684C33184603F02C
:1010D00031FC204603F098FF02F01AFDBB681B6B41
:1010E000002B02D0BB681B6B09E00F4B1B68002B69
:1010F00004D00D4B1B687A681046984700231846A9
:101100001C37BD4690BD00BF50CC020038C702005E
:1011100098C70200DC0A002074C8020034C702002D
:10112000A0C8020010C80200E00A002080B582B00A
:1011300000AF786000217868FFF730FF034618465B
:101140000837BD4680BDFFFFB0B582B000AF786004
:101150007B68002B05D140F25F222649264801F02A
:10116000D7FD7B68184602F069FB0346022B05D0C9
:101170004FF418721F49214801F0CAFD204B1B682B
:10118000002B04D01E4B1B687A6810469847002538
:1011900003F036FF04467B6814331846FFF72AFD38
:1011A0000346002B06D17B6814331846FFF794FDE5
:1011B000012512E07B689B8B4FF6FF72934206D0AD
:1011C0007B689B8B01339AB27B689A8305E020464B
:1011D00003F01AFF6FF0020307E0204603F014FF4C
:1011E000012D01D102F094FC002318460837BD46BA
:1011F000B0BD00BF70CC020038C7020098C7020023
:10120000E40A002080B586B000AFF860B9607A606B
:10121000FB68002B05D14FF428721849184801F0DB
:1012200077FDFB68184602F009FB0346022B05D048
:1012300040F2A1221149134801F06AFDBB68012B5D
:1012400016D17B687B6103F0DBFE03463B61FB68E4
:1012500014331846FFF750FD7B699AB2FB689A83F6
:101260003B69184603F0D0FE02F052FC002301E077
:101270004FF0FF3318461837BD4680BD80CC0200C2
:1012800038C7020098C7020080B584B000AFF8608C
:10129000B9601346FB71FB68002B05D140F2E622D2
:1012A0001049114801F034FDFB68BA680321184663
:1012B00002F068F9FB681846FFF7AEFCFB680122F4
:1012C0009A83FB6800221A62FB68FF229A77FB6808
:1012D0000022DA77FB6801225A7200231846103781
:1012E000BD4680BD90CC0200D8C8020080B582B057
:1012F00000AF78607B68002B05D14FF4447216492B
:10130000164801F005FD7B68184602F097FA03467F
:10131000032B05D040F211320F49114801F0F8FCBF
:101320007B68184602F06CFA0346002B05D140F2A8
:10133000123209490B4801F0EBFC7B681433184664
:10134000FFF7DAFC7B68184602F082F900231846A2
:101350000837BD4680BD00BFA0CC0200D8C802003F
:10136000ECC8020030C9020080B584B000AF7860DC
:101370000B46FB7003F044FEF86000F0D5FC03461A
:10138000002B09D01749184801F06AFB4FF44E7240
:101390001449164801F0BCFCF86803F035FE796882
:1013A000032002F083F9B860BB68002B01D1BB6851
:1013B00013E0BB681846FFF72FFCBB6801229A8335
:1013C000BB6800221A62BB68FF229A77BB680022C2
:1013D000DA77BB6801225A72BB6818461037BD46DF
:1013E00080BD00BFB0CC020010C8020034C70200AC
:1013F00080B584B000AF78607B68002B05D14FF4D6
:1014000059722049204801F083FC7B68184602F09D
:1014100015FA0346032B05D040F2653219491B48E3
:1014200001F076FC7B68184602F0EAF90346002BCF
:1014300005D040F266321349154801F069FC03F00B
:10144000DFFDF86000F070FC0346002B09D00D4969
:10145000104801F005FB4FF45A720A490E4801F09A
:1014600057FCF86803F0D0FD7B6814331846FFF78B
:1014700043FC7B68184602F085F9002318461037B4
:10148000BD4680BDC0CC0200D8C80200ECC8020036
:1014900064C9020010C8020034C7020090B587B0CA
:1014A00000AF7860396003F0ABFD786102F0CCFCEE
:1014B0000346002B09D07749774801F0D1FA4FF461
:1014C00065727449754801F023FC03F099FD386199
:1014D00002F012FE0346002B09D16E49704801F05C
:1014E000BFFA4FF465726B496C4801F011FC03F0D0
:1014F00087FDF86000F018FC0346002B09D0654911
:10150000684801F0ADFA4FF465726249634801F032
:10151000FFFBF86803F078FD386903F075FD786922
:1015200003F072FD7B68002B05D140F297325949D8
:101530005D4801F0EDFB7B68184602F07FF9034639
:10154000032B05D04FF466725249584801F0E0FB76
:1015500002F0D2FDB86003F053FD0446544B1B6803
:10156000002B04D0524B1B687A6810469847BB6822
:1015700000221A637B681B6ABA689A4210D17B68A2
:10158000DB7FFF2B06D07B68DB7F0133DAB27B6821
:10159000DA776DE0204603F037FD6FF0020374E068
:1015A0007B689B8B002B1ED07B689B8B013B9AB288
:1015B0007B689A837B68BA681A62BB6893F83520A7
:1015C0007B689A777B68DB7FFF2B06D07B68DB7FAD
:1015D0000133DAB27B68DA774AE0204603F014FD83
:1015E0006FF0020351E03B68002B09D1BB686FF03C
:1015F00001021A63204603F007FD6FF0010344E087
:10160000BB6893F835207B681B6A93F835309A42A3
:1016100007D27B68186ABB6835331A46022102F08C
:1016200009FF7B6803F114007B685B7A1A46B9688E
:10163000FFF700FB3B68002B0BDDBB684C333A46E1
:101640000021184603F0D2FABB684C33184603F069
:1016500071F9204603F0D8FC02F05AFABB681B6B04
:10166000002B02D0BB681B6B0FE003F0C9FC0446E3
:10167000204603F0C9FC0F4B1B68002B04D00D4B18
:101680001B687A6810469847002318461C37BD46E9
:1016900090BD00BFD0CC020074C8020034C7020065
:1016A000A0C8020010C80200D8C80200ECC802009E
:1016B000DC0A0020E00A002090B587B000AF786017
:1016C0007B68002B05D140F244426349634801F036
:1016D0001FFB7B68184602F0B1F80346032B05D0C8
:1016E00040F245425C495E4801F012FB00237B61F9
:1016F00003F086FC386102F0FFFC0346002B09D1A1
:101700005549584801F0ACF940F24A42524956480E
:1017100001F0FEFA03F074FCF86000F005FB0346EC
:10172000002B09D04C49514801F09AF940F24A4245
:1017300049494D4801F0ECFAF86803F065FC386956
:1017400003F062FC02F0D8FCB86003F059FC0446D8
:10175000474B1B68002B04D0454B1B687A6810462A
:1017600098477B681B6ABA689A4209D0BB684FF0F9
:10177000FF321A63204603F047FC4FF0FF3367E067
:101780007B68DB7F013BDAB27B68DA777B68DB7FE3
:10179000002B54D17B689A7F7B681B6A93F83530A5
:1017A0009A4207D07B68186A7B681E331A4602216A
:1017B00002F040FE7B6814331846FFF71BFA03461D
:1017C000002B23D17B685B69143BBB607B68BA68E4
:1017D0001A62BB6893F835207B689A777B68DB7F59
:1017E000FF2B0DD07B68DB7F0133DAB27B68DA77C1
:1017F0007B6814331846FFF76FFA01237B611EE004
:10180000204603F001FC6FF0020321E07B689B8B14
:101810004FF6FF7293420CD07B689B8B01339AB2D8
:101820007B689A837B6800221A627B68FF229A7722
:1018300005E0204603F0E8FB6FF0020308E02046D5
:1018400003F0E2FB7B69012B01D102F061F9002377
:1018500018461C37BD4690BDE0CC0200D8C8020037
:10186000ECC80200A0C8020034C7020010C8020081
:10187000E40A002080B584B000AF78600B46FB70AE
:10188000FB78002B08D0FB78012B05D040F24C529E
:101890001849194801F03CFA03F0B2FBF86000F077
:1018A00043FA0346002B09D01249144801F0D8F836
:1018B00040F24E520F49124801F02AFAF86803F03C
:1018C000A3FB7968042001F0F1FEB860BB68002B2F
:1018D00001D1BB680AE0BB68FA785A72BB68184647
:1018E000FFF79AF9BB680022DA61BB681846103727
:1018F000BD4680BDF4CC02005CC7020010C80200E7
:1019000034C70200B0B586B000AF786039607B683C
:10191000002B05D140F2A4524C494D4801F0F8F992
:101920007B68184601F08AFF0346042B05D040F27D
:10193000A5524649474801F0EBF93B68002B02D11C
:101940004FF0FF337DE000233B6103F059FB03467A
:101950001D467B68DA693B681A437B68DA613E4B57
:101960001B68002B04D03C4B1B687A6810469847D4
:101970007B6814331846FFF73DF90346002B56D118
:101980007B685B697B614DE07B69143BFB604FF0DA
:10199000FF34FB6893F8403003F00103002B0AD0BA
:1019A000FB68DA6B7B68DB691A40FB68DB6B9A4289
:1019B0001FD100241DE0FB6893F8403003F00203C0
:1019C000002B0FD0FB68DA6B7B68DB691340002BC0
:1019D0000FD0FB68DA6B7B68DB691A40FB68DA635F
:1019E000002406E02B46184603F00EFB6FF00903B7
:1019F00027E07B691B687B61002C13D1FB6893F89F
:101A0000403003F00403002B07D07B68DA69FB68E1
:101A1000DB6BDB431A407B68DA61F86802F0ECFDAF
:101A200001233B617B6814337A699A42ACD12B461F
:101A3000184603F0E9FA3B69012B01D102F068F87E
:101A4000002318461837BD46B0BD00BF04CD0200C4
:101A5000A4C90200B8C90200E40A0020B0B588B0E9
:101A600000AFF860B9603B601346FB71FB68002B68
:101A700005D140F223628349834801F049F9FB68AC
:101A8000184601F0DBFE0346042B05D040F2246229
:101A90007C497E4801F03CF903F0B2FAF86102F0AB
:101AA000D3F90346002B09D07649794800F0D8FFD6
:101AB00040F227627349774801F02AF903F0A0FA4F
:101AC000B86102F019FB0346002B09D16D49724839
:101AD00000F0C6FF40F227626A496E4801F018F92B
:101AE00003F08EFA786100F01FF90346002B09D04D
:101AF00064496A4800F0B4FF40F2276261496548D2
:101B000001F006F9786903F07FFAB86903F07CFA0E
:101B1000F86903F079FABB68002B02D14FF0FF336C
:101B2000ABE04FF0FF3402F0E7FA38613B69002286
:101B30001A635B4B1B68002B04D0594B1B68FA6877
:101B40001046984703F05CFA03461D46FB7903F004
:101B50000103002B08D0FB68DA69BB681340BA6840
:101B60009A4214D1002412E0FB7903F00203002B07
:101B700007D0FB68DA69BB681340002B07D000244C
:101B800005E040F246623F49424801F0C1F8002CAE
:101B90001FD13B6B002B05D0FB68DA69BB681A408C
:101BA0003B6B1A60FB68DA69BB681A403B69DA6311
:101BB0003B69FA7983F84020FB7903F00403002B9A
:101BC0004CD0FB68DA69BB68DB431A40FB68DA611A
:101BD00044E03B68002B0AD13B696FF001021A63B5
:101BE0002B46184603F010FA6FF0010345E03B69FD
:101BF000BA68DA633B69FA7983F84020FB6803F13D
:101C00001400FB685B7A1A463969FFF713F83B68E2
:101C1000002B0BDD3B694C333A460021184602F09D
:101C2000E5FF3B694C33184602F084FE2B4618460C
:101C300003F0EAF901F06CFF3B691B6B002B02D04B
:101C40003B691B6B19E003F0DBF903461D463B6B58
:101C5000002B03D03B69DA6B3B6B1A602B461846AE
:101C600003F0D2F90F4B1B68002B04D00D4B1B68FF
:101C7000FA68104698473B691B6B18462037BD46EB
:101C8000B0BD00BF14CD0200A4C90200B8C9020053
:101C900074C8020034C70200A0C8020010C80200C5
:101CA000DC0A0020E00A002080B582B000AF03F01B
:101CB000A7F978600A4B1B78DBB20133DAB2084B24
:101CC0001A70084B1B68002B02D0064B1B68984704
:101CD000786803F099F900BF0837BD4680BD00BFA2
:101CE000140A00200C0A002080B582B000AF03F077
:101CF00087F978600A4B1B68002B02D0084B1B68E1
:101D00009847084B1B78DBB2013BDAB2054B1A70DF
:101D1000786803F079F900BF0837BD4680BD00BF81
:101D2000100A0020140A002080B582B000AF03F032
:101D300067F97860054B1B78FB70786803F064F9ED
:101D4000FB7818460837BD4680BD00BF140A002046
:101D500080B584B000AF7860FFF7E6FF0346002B44
:101D600003D00A4A7B6813600CE002F0C5F9F86002
:101D7000FB68002B03D1054A7B68136002E0FB6817
:101D80007A681A631037BD4680BD00BF180A00206C
:101D900080B582B000AFFFF7C7FF0346002B01D02C
:101DA000074B09E002F0A8F978607B68002B02D0AD
:101DB0007B68303300E0024B18460837BD4680BDD3
:101DC000180A002080B489B000AFF860B9607A606A
:101DD000FB68FB61BB68DBB27B617B68032B40D98E
:101DE000FB6803F00303002B3BD1FB68BB617B69FD
:101DF0001B027A6913433B613B691B043A69134335
:101E00003B6116E0BB691A1DBA613A691A60BB6989
:101E10001A1DBA613A691A60BB691A1DBA613A693A
:101E20001A60BB691A1DBA613A691A607B68103B77
:101E30007B607B680F2BE5D807E0BB691A1DBA6190
:101E40003A691A607B68043B7B607B68032BF4D89B
:101E5000BB69FB6105E0FB695A1CFA617A69D2B281
:101E60001A707B685A1E7A60002BF4D1FB68184602
:101E70002437BD465DF8047B704780B48BB000AF5B
:101E8000F860B9607A60FB687B62BB683B627B6824
:101E90007B617B690F2B4DD93A6A7B6A134303F050
:101EA0000303002B46D17B6AFB613B6ABB6122E0E6
:101EB000BA69131DBB61FB69191DF96112681A60CB
:101EC000BA69131DBB61FB69191DF96112681A60BB
:101ED000BA69131DBB61FB69191DF96112681A60AB
:101EE000BA69131DBB61FB69191DF96112681A609B
:101EF0007B69103B7B617B690F2BD9D80AE0BA69FB
:101F0000131DBB61FB69191DF96112681A607B69B9
:101F1000043B7B617B69032BF1D8FB697B62BB6966
:101F20003B6207E03A6A531C3B627B6A591C796248
:101F300012781A707B695A1E7A61002BF2D1FB6805
:101F400018462C37BD465DF8047B704780B487B0D7
:101F500000AFF860B9607A60FB687B61BB683B6189
:101F60003A697B699A4226D23A697B6813447A6956
:101F70009A4220D27A697B6813447B613A697B6814
:101F800013443B6109E03B69013B3B617B69013BD9
:101F90007B613B691A787B691A707B685A1E7A608C
:101FA000002BF0D10CE03A69531C3B617B69591C52
:101FB000796112781A707B685A1E7A60002BF2D110
:101FC000FB6818461C37BD465DF8047B704780B43B
:101FD00089B000AFF860B9607A6000237B61FB686C
:101FE000FB61BB68BB6112E0FB691B781A46BB69E9
:101FF0001B78D31A7B617B69002B0CD1FB69013301
:10200000FB61BB690133BB617B68013B7B607B6823
:10201000002BE9D100E000BF7B6918462437BD469C
:102020005DF8047B704780B584B000AF786039609C
:10203000386800F0A0F80346BB60BB68002B01D1F4
:102040007B681BE0786800F096F80346FB6010E0C0
:10205000FB68013BFB60BB681A4639687868FFF78C
:10206000B6FF0346002B01D17B6807E07B68013394
:102070007B60FA68BB689A42EADA00231846103798
:10208000BD4680BD80B487B000AFF860B9607A60AB
:102090007B68002B21D0FB687B61BB683B613A69A0
:1020A000531C3B617B69591C796112781A701B784B
:1020B000002B0CD104E07B695A1C7A6100221A7053
:1020C0007B68013B7B607B68002BF4D105E07B687B
:1020D000013B7B607B68002BE1D1FB6818461C3715
:1020E000BD465DF8047B704790B484B000AFF860E3
:1020F000B9607A60002413E0FB681A78BB68591C49
:10210000B9601B78D31ADBB25CB2002C0BD1FB6830
:102110005A1CFA601B78002B05D07B68013B7B6062
:102120007B68002BE8D1234618461037BD4690BC8B
:10213000704780B483B000AF7860396005E07B6899
:1021400001337B603B6801333B607B681B78002B6D
:1021500005D07B681A783B681B789A42EFD07B6881
:102160001B781A463B681B78D31A18460C37BD46B5
:102170005DF8047B704780B485B000AF78607B6801
:10218000FB6002E0FB680133FB60FB681B78002BFF
:10219000F8D1FA687B68D31A18461437BD465DF843
:1021A000047B704780B584B000AF78607868FFF733
:1021B000E2FF03460133FB60F86800F01BFDB860E6
:1021C000BB68002B01D1002305E0FA687968B86884
:1021D000FFF753FEBB6818461037BD4680BDFFFFB2
:1021E00080B582B002AF0B4800F03AFC0A4800F01C
:1021F00037FC0A4B01930A4B009300230122042170
:10220000084800F02DFC084800F02AFC00BFBD463D
:1022100080BD00BF24CD020030CD020078CD020089
:1022200084CD020054CD020090CD020080B485B070
:1022300000AF786039603B680A2B17D17B681B6858
:102240001946134BA3FB0123DA0813469B001344E2
:102250005B00CA1AFA607B681B681A460C4BA3FB2A
:102260000223DB081A467B681A600AE07B681B6859
:1022700003F00F03FB607B681B681B091A467B6831
:102280001A60FB6818461437BD465DF8047B70473A
:10229000CDCCCCCC90B482B000AF786000240DE0FF
:1022A00023469B0023445B0018467B681B68591C2F
:1022B0007A6811601B780344A3F130047B681B68C3
:1022C0001B78303B092BEBD9234618460837BD460F
:1022D00090BC7047B0B58CB000AFF860B9607A6060
:1022E0003B607B6CBB623C6CBB6C03F04003002B1F
:1022F00001D06D4B00E06D4B7B62BB6C03F01003B3
:10230000002B03D0BB6C23F00103BB64BB6C03F058
:102310000103002B01D0302300E0202387F8233075
:10232000002387F82F30BB6C03F00203002B1AD078
:102330007B68002B06DA2D2387F82F307B685B4201
:102340007B6010E0BB6C03F00403002B03D02B2355
:1023500087F82F3007E0BB6C03F00803002B02D096
:10236000202387F82F3000257B68002B19D12B46BE
:102370005D1C07F130021344302203F8202C13E0D7
:102380003B1D39681846FFF751FF03461A467B6A22
:102390001A442B465D1C127807F130010B4403F8F8
:1023A000202C7B68002BEBD17B6C9D4200DD7D6493
:1023B0007B6CE41ABB6C03F01103002B15D197F86A
:1023C0002F30002B0DD0002C0BDD013C09E0FA680A
:1023D000BB689A4202D2FB6820221A70FB68013364
:1023E000FB6023465C1E002BF1DC97F82F30002B9E
:1023F0000BD0FA68BB689A4203D2FB6897F82F208B
:102400001A70013CFB680133FB60BB6C03F01003E6
:10241000002B1AD10AE0FA68BB689A4203D2FB6823
:1024200097F823201A70FB680133FB6023465C1E7B
:10243000002BF0DC09E0FA68BB689A4202D2FB6824
:1024400030221A70FB680133FB607B6C5A1E7A6481
:102450009D42F0DB0DE0FA68BB689A4206D207F1B4
:1024600030032B4413F8202CFB681A70FB680133EF
:10247000FB602B465D1E002B0DDDBB6A002BEAD1F5
:1024800009E0FA68BB689A4202D2FB6820221A70FF
:10249000FB680133FB6023465C1E002BF1DCFB680C
:1024A00018463037BD46B0BD2CCE020040CE0200EB
:1024B00080B592B004AFF860B9607A603B60FB68A9
:1024C000BB62FA68BB6813447B627A6AFB689A4213
:1024D00080F026824FF0FF337B627A6AFB68D31A62
:1024E000BB601DE27B681B78252B0BD0BA6A7B6A28
:1024F0009A4203D27B681A78BB6A1A70BB6A0133AE
:10250000BB620AE20023BB777B6801337B607B6898
:102510001B782D2B04D1BB7F43F01003BB77F3E76F
:102520007B681B782B2B04D1BB7F43F00403BB7764
:10253000EAE77B681B78202B04D1BB7F43F00803BC
:10254000BB77E1E77B681B78232B04D1BB7F43F08B
:102550002003BB77D8E77B681B78302B04D1BB7F87
:1025600043F00103BB77CFE700BF4FF0FF33BB6100
:102570007B681B78303B092B05D83B1D1846FFF7BD
:1025800089FEB86115E07B681B782A2B11D17B6826
:1025900001337B603B681A1D3A601B68BB61BB69F5
:1025A000002B06DABB695B42BB61BB7F43F01003C3
:1025B000BB774FF0FF337B617B681B782E2B1ED1DE
:1025C0007B6801337B607B681B78303B092B05D827
:1025D0003B1D1846FFF75EFE78610BE07B681B78B9
:1025E0002A2B07D17B6801337B603B681A1D3A6058
:1025F0001B687B617B69002B01DA00237B61002370
:102600007B777B681B78682B03D07B681B786C2BEF
:1026100005D17B681B787B777B6801337B600A235D
:10262000FB777B681B78252B00F00881252BC0F2F7
:102630001F81782B00F31C81582BC0F21981583B65
:10264000202B00F2158101A252F823F05928000036
:102650007128000071280000712800007128000016
:102660007128000071280000712800007128000006
:102670007128000071280000D126000067280000A2
:1026800071280000712800007128000071280000E6
:1026900067280000712800007128000071280000E0
:1026A0007128000071280000532800000528000050
:1026B00071280000712800003F27000071280000E9
:1026C000AD2800007128000071280000612800007A
:1026D000BB7F03F01003002B10D109E0BA6A7B6ABC
:1026E0009A4202D2BB6A20221A70BB6A0133BB62D3
:1026F000BB69013BBB61BB69002BEFDC3B681A1D6A
:102700003A601B68FB74BA6A7B6A9A4202D2BB6A5F
:10271000FA7C1A70BB6A0133BB6209E0BA6A7B6A51
:102720009A4202D2BB6A20221A70BB6A0133BB6292
:10273000BB69013BBB61BB69002BEFDCEDE03B6893
:102740001A1D3A601B683B623B6A002B01D1824B29
:102750003B620023FB6202E0FB6A0133FB62FA6A20
:10276000BB699A4205D0FB6A3A6A13441B78002B76
:10277000F2D17B69002B05DDFA6A7B699A4201DDA3
:102780007B69FB62BB7F03F01003002B10D109E0D3
:10279000BA6A7B6A9A4202D2BB6A20221A70BB6A6A
:1027A0000133BB62BB695A1EBA61FA6A9A42EFDB17
:1027B00000233B6310E0BA6A7B6A9A4203D23B6A09
:1027C0001A78BB6A1A70BB6A0133BB623B6A013379
:1027D0003B623B6B01333B633A6BFB6A9A42EADB39
:1027E00009E0BA6A7B6A9A4202D2BB6A20221A7056
:1027F000BB6A0133BB62BB695A1EBA61FA6A9A426C
:10280000EFDB8AE0BB69B3F1FF3F05D10823BB6171
:10281000BB7F43F00103BB773B681A1D3A601B681E
:102820001A46BB7F02937B690193BB690093102317
:10283000796AB86AFFF74EFDB8626EE0BA6A7B6AE1
:102840009A4202D2BB6A25221A70BB6A0133BB626C
:1028500063E00823FB772AE0BB7F43F04003BB77AC
:102860001023FB7723E0BB7F43F00203BB771DE01F
:10287000BA6A7B6A9A4202D2BB6A25221A70BB6A84
:102880000133BB627B681B78002B0BD0BA6A7B6A72
:102890009A4203D27B681A78BB6A1A70BB6A01330A
:1028A000BB623AE07B68013B7B6036E000BF7B7F28
:1028B0006C2B09D13B681A1D3A601B687B63BB7F98
:1028C00003F00203002B1AE07B7F682B0ED13B68DC
:1028D0001A1D3A601B689BB27B63BB7F03F0020347
:1028E000002B0CD07B6B1BB27B6308E03B681A1D8E
:1028F0003A601B687B63BB7F03F00203002B7A6B9B
:10290000F97FBB7F02937B690193BB6900930B4600
:10291000796AB86AFFF7DEFCB8627B6801337B60D6
:102920007B681B78002B7FF4DDADBB68002B0BD0E0
:10293000BA6A7B6A9A4203D2BB6A00221A7003E029
:102940007B6A013B00221A70BA6AFB68D31A1846E8
:102950003837BD4680BD00BFBCCD02000CB480B589
:1029600084B000AF7860396007F11C03BB60BB68BE
:10297000BA6939687868FFF79BFDF860FB6818460C
:102980001037BD46BDE8804002B0704780B584B0C6
:1029900000AFF860B9607A607B68BA684FF0FF31C9
:1029A000F868FFF785FD034618461037BD4680BD21
:1029B0000EB480B585B000AF786007F12003BB602E
:1029C000BA68F9697868FFF7E1FFF860FB681846B4
:1029D0001437BD46BDE8804003B0704780B400AFF7
:1029E000034B1B681846BD465DF8047B704700BF6B
:1029F0001C0A002080B584B000AF7860124B1B68C1
:102A0000FB607868FDF71EFEB860BA68FB689A4202
:102A100001D1002313E0BB68002B0FD00A4B1B68C9
:102A2000002B04D0084B1B681846FDF79DFE432180
:102A3000B868FDF715FE044ABB681360FB681846CA
:102A40001037BD4680BD00BF1C0A002080B483B093
:102A500000AF786000BF0C37BD465DF8047B70475F
:102A60000FB480B582B000AF07F114033B603B6840
:102A70003A697F211048FFF71BFD03467B607B68A6
:102A80007F2B01D97F237B600C4B1B68002B03D16C
:102A90000948FFF7DBFF06E0084B18687B68064A29
:102AA0000021FDF7F3FE7B6818460837BD46BDE8F8
:102AB000804004B0704700BF540A00201C0A002068
:102AC00080B500AF012203490348FEF7DDFB00BFDC
:102AD00080BD00BFC4CD0200280A002080B500AF31
:102AE00001F00AFB0346002B06D04FF0FF310448EB
:102AF000FEF7D4FC034600E00023184680BD00BF6B
:102B0000280A002080B582B000AF78607B68002B77
:102B100005D04FF4AC620849084800F0F9F801F01C
:102B2000EBFA0346002B02D00548FEF7C5FD00BFB7
:102B30000837BD4680BD00BF68CE0200CCCD020084
:102B4000280A002080B485B000AFF860B9607A60D0
:102B5000FB68002B04D00D4B1B68DA69FB681A6018
:102B6000BB68002B04D0094B1B681A6ABB681A604B
:102B70007B68002B04D0054B1B685A6A7B681A607F
:102B800000BF1437BD465DF8047B70474C0A002037
:102B900080B584B000AF786039607B68033323F080
:102BA0000303FB603B6823F00303BB60BA68FB6868
:102BB0009A4205D840F2B6520A490B4800F0A8F8EC
:102BC000BA68FB68D31A1A467968084800F042F9D7
:102BD0000346074A1360FFF773FF00BF1037BD4677
:102BE00080BD00BF54CE0200DCCD0200C4CD020087
:102BF0004C0A002080B584B000AF7860FFF76EFF0C
:102C0000F8600C4B1B687968184600F0A5F9B860AD
:102C1000F868FFF777FF084B1B68002B04D0064BC2
:102C20001B687968B8689847BB6818461037BD4676
:102C300080BD00BF4C0A0020200A002080B584B06F
:102C400000AF78603960FFF749FFF860074B1B68F9
:102C50003A687968184600F0B3FAB860F868FFF788
:102C600051FFBB6818461037BD4680BD4C0A002096
:102C700080B584B000AF786039607B683A6802FB49
:102C800003F31846FFF7B6FFF860FB68002B08D087
:102C90007B683A6802FB03F31A460021F868FFF7E5
:102CA00091F8FB6818461037BD4680BD80B584B0EA
:102CB00000AF78600A4B1B68002B03D0084B1B68E1
:102CC00078689847FFF70AFFF860786800F062FBC1
:102CD000F868FFF717FF00BF1037BD4680BD00BF83
:102CE000240A002080B586B000AFF860B9607A6031
:102CF000FFF7F4FE78617A68B968F868FFF722FF99
:102D00007869FFF7FFFE00BF1837BD4680BDFFFFA3
:102D100080B586B000AFF860B9607A600023FB75BB
:102D20000C4B1B68002B0BD17B68BA68F9680A480A
:102D3000FFF796FE00BFFB7DDBB2002BFBD005E06A
:102D4000044B1B687A68B968F868984700BF183761
:102D5000BD4680BD500A0020F4CD020080B584B08D
:102D600000AF786039607B689B6A3A689A4204D207
:102D7000822235493548FFF7CBFF7B68DB6A3A682A
:102D80009A4204D3832230493148FFF7C1FF7B6860
:102D90009A6A3B685B681344FB603A68FB689A4236
:102DA00024D0FB681B6803F00103002B1ED17B6855
:102DB000DB6AFA689A4219D07B681B6BFA689A4200
:102DC00002D17B683A681A63FB6800221A60FB68CC
:102DD0005A683B685A607B689B6A3A68D11A7B687C
:102DE0009A6AFB685B6813440A469A607B689A6A31
:102DF0003B689B681344BB60BA683B689A421FD02B
:102E0000BB681B6803F00103002B19D17B681B6BA7
:102E10003A689A4202D17B68BA681A633B6800221A
:102E20001A603B685A68BB685A607B689B6ABA68DC
:102E3000D11A7B689A6A3B685B6813440A469A60B9
:102E400000BF1037BD4680BD94D2020078CE02008C
:102E50009CCE020080B58AB000AFF860B9607A609D
:102E6000BB68033323F003037B627B6A38333B6226
:102E70003B6A033323F00303FB61BA687B681344A6
:102E800023F00303BB61BB69182B53D9BB69183B03
:102E90003A6A9A424ED8BA69FB69D31A183B7B61E9
:102EA00038220021786AFEF78DFF7B6AFA680C21D0
:102EB000184600F067FB7B6A254A5A617B6AFA690B
:102EC0009A617B6A7A69DA617B6A7A695A63FA691C
:102ED0007B6A9A627B6A9B6A3B617B6A23F0010290
:102EE0003B691A607B6A5B6B03F10C023B695A60B9
:102EF0003B6900229A607B6A9A6A3B695B681A4464
:102F00007B6ADA627A6A7B6ADB6A42F001021A60E3
:102F10007B6A5A6B7B6ADB6A0C325A607B6A5A6B3B
:102F20007B6ADB6A0C329A607B6A9A6A7B6A1A63F4
:102F30007B6A08E0B968BA687B6813441A4605489A
:102F4000FFF78EFD002318462837BD4680BD00BF21
:102F5000CCCE0200D4CE020080B588B000AF78603D
:102F600039603B68002B01D1002315E17B68002B01
:102F700005D14FF490728A498A48FFF7C9FE7B68F1
:102F8000184600F05BFC03460C2B05D040F22112E2
:102F900083498548FFF7BCFE7B68184600F030FC8B
:102FA0000346002B05D14FF491727D497F48FFF70E
:102FB000AFFE7B68BB613B68033323F003033B60D8
:102FC000BB695B6B3A689A4201D90023E4E03B6835
:102FD0000B2B01D80C233B60BB691A6BBB699B6A46
:102FE000D31AFB61CFE0BB699A6AFB6913447B612A
:102FF0007B691B6803F00103002B40F0BE807B69F6
:103000005A68FB69D31A0C3B3A689A4200F2B580C1
:103010007B695A68FB69D31AA3F10C023B68183329
:103020009A4239D3FA693B6813440C333B61BB695C
:103030009A6A3B691344FB60BB6923F00102FB6899
:103040001A607B695A68FB685A60FB68FA699A6083
:103050007B693A695A60FB685A68BB695B6B0C33E1
:103060009A4206D0BB699A6AFB685B6813443A6966
:103070009A60BB691A6A3B68134403F10C02BB698E
:103080001A62BB695A6ABB691B6A9A421AD2BB6947
:103090001A6ABB695A6215E0BB691A6A7B695B6888
:1030A000B969896A7869411A5B1A1A44BB691A625C
:1030B000BB695A6ABB691B6A9A4203D2BB691A6A26
:1030C000BB695A62BB6943F001027B691A60BB6944
:1030D0001B6B7A699A4228D107E0BB699A6ABB697F
:1030E0001B6B5B681A44BB691A63BB691B6B1B686B
:1030F00003F00103002B05D0BB691A6BBB69DB6AC7
:103100009A42EAD1BB691A6BBB69DB6A9A420CD05E
:10311000BB691B6B1B6803F00103002B05D040F259
:1031200083121F492248FFF7F3FD7A693B68134475
:103130000C33BA69D26A934205D940F28512184914
:103140001C48FFF7E5FD7B690C3303F00303002BFC
:1031500005D04FF4C37212491748FFF7D9FD7B69B8
:1031600003F00303002B05D040F287120C491348EB
:10317000FFF7CEFD7B690C330EE0BB699A6AFB69F1
:1031800013445B68FB61BB695A6B3B68D31AFA69ED
:103190009A427FF628AF002318462037BD4680BDEF
:1031A000A0D2020010CF020020CF02005CCF0200AC
:1031B00084CF0200D4CF020024D0020070D00200DD
:1031C00080B58CB000AFF860B9607A60FB68002B06
:1031D00005D14FF4D57268496848FFF799FDFB683F
:1031E000184600F02BFB03460C2B05D040F2AB1227
:1031F00061496348FFF78CFDFB68184600F000FB4F
:103200000346002B05D14FF4D6725B495D48FFF7AA
:103210007FFDFB68FB627B68033323F003037B6065
:10322000FB6A5B6B7A689A4201D900239FE07B6856
:10323000002B04D1B86800F0ADF8002397E0BB681C
:10324000002B06D1FB6A79681846FFF785FE034616
:103250008DE0BB6803F00303002B05D040F2C112E0
:1032600045494948FFF754FDFB6A9B6ABA689A4290
:1032700005D24FF4E17240494448FFF749FDFB6A2B
:10328000DB6ABA689A4205D340F2C3123A49404811
:10329000FFF73EFDBB680C3BBB62FB6A9B6ABA6AE8
:1032A000D31A7B62BB6A5A687B6AD31A0C3B3B62B7
:1032B0003A6A7B689A4201D1BB6858E07B68183350
:1032C0003A6A9A423CD9FB6A1A6A79683B6ACB1A15
:1032D0001A44FB6A1A627A6A7B6813440C33BB6136
:1032E000FB6A9A6ABB6913447B61FB6A23F00102A3
:1032F0007B691A60BB6A5A687B695A607B697A6A23
:103300009A60BB6ABA695A607B695A68FB6A5B6BF0
:103310000C339A4206D0FB6A9A6A7B695B68134455
:10332000BA699A60FB6A1B6B7A699A4202D2FB6A9D
:103330007A691A637969F86AFFF710FDBB6816E0CD
:10334000FB6A79681846FFF707FEF861FB69002BF6
:103350000CD07A683B6A934228BF13461A46B96874
:10336000F869FEF78AFDB86800F014F8FB691846A2
:103370003037BD4680BD00BFB0D2020010CF020082
:1033800020CF02005CCF0200A0D00200D0D002000B
:1033900008D1020080B584B000AF78607B68002B54
:1033A00000F083807B6803F00303002B05D04FF40B
:1033B000027240494048FFF7ABFC7B680C3BFB6066
:1033C000FB681B6823F00103BB60BB68002B05D1C1
:1033D0004FF4057237493948FFF79AFCFB681B68C0
:1033E00003F00103002B05D140F215223149344886
:1033F000FFF78EFCBB68184600F020FA03460C2B42
:1034000005D040F216222B492E48FFF781FCBB68FD
:10341000184600F0F5F90346002B05D140F21722BB
:1034200024492948FFF774FCBB689B6A7A689A4272
:1034300004D3BB68DB6A7A689A4205D34FF40672FC
:103440001C492248FFF764FCBB689A6AFB685B680A
:1034500013441B6823F001031A46BB68934205D04E
:1034600040F21A2213491A48FFF752FCBB6823F0B6
:103470000102FB681A60BB681B6BFA689A4202D2B1
:10348000BB68FA681A63BB681A6ABB689B6AF9680A
:10349000CB1A1946FB685B68CB1A1A44BB681A62E0
:1034A000F968B868FFF75AFC00E000BF1037BD4666
:1034B00080BD00BFC0D20200A0D0020040D10200F7
:1034C00058D1020068D10200B0D10200E8D1020058
:1034D0005CD2020080B483B000AF786039607B6852
:1034E0001B683A685A607B681A683B681A607B6898
:1034F0003A681A603B687A685A6000BF0C37BD466C
:103500005DF8047B704780B483B000AF78607B685F
:103510001B687A6852685A607B685B687A681268D0
:103520001A607B687A685A607B685A687B681A60A0
:1035300000BF0C37BD465DF8047B704780B485B092
:1035400000AF0346FB710023FB600FE00C4AFB68F1
:103550001B0113441B78FA799A4204D1FB681B01C2
:10356000074A134406E0FB680133FB60FB68082B45
:10357000ECDD002318461437BD465DF8047B704728
:103580000800002090B589B000AFF8600B467A6063
:10359000FB720023FB61FB7A1846FFF7CFFFB8618F
:1035A000BB69002B05D14FF4AB7225492548FFF7C5
:1035B000AFFB00F009FCBB695B68FB6112E0FB69D3
:1035C0000C3B7B617B69002B09D07A69FB689A42CE
:1035D00005D14FF4B3721A491B48FFF799FBFB69F9
:1035E0001B68FB61BB690433FA699A42E7D100F0BA
:1035F00001FCFB7A63F07F03DAB2FB681A72FB68A6
:10360000082279681846FEF73DFD104B1B68002B19
:1036100003D00E4B1B68F868984701F0F1FC044694
:10362000BB691A1DFB680C3319461046FFF752FFA1
:10363000204601F0E9FC00BF2437BD4690BD00BF25
:1036400064D30200D0D20200E8D20200D40A0020E3
:1036500090B583B000AF78607B68002B05D140F255
:1036600093120F490F48FFF753FB0F4B1B68002BBA
:1036700003D00D4B1B68786898477B6800221A724C
:1036800001F0BEFC04467B680C331846FFF73BFF95
:10369000204601F0B9FC00BF0C37BD4690BD00BF0D
:1036A00074D30200F8D20200D80A002090B587B087
:1036B00000AF03463960FB7101F0A2FC7861FEF7B0
:1036C00033FB0346002B09D029492A48FFF7C8F9E4
:1036D00040F2B71226492848FFF71AFB786901F033
:1036E00093FCFB791846FFF729FF38613B69002BF3
:1036F00005D140F2BB121E492048FFF709FB3B6988
:10370000DB681846FFF776FAF860FB68002B01D1FA
:10371000002329E03B69DB681A460021F868FEF7C0
:1037200051FBFB68FA791A72FB6800225A72FB6837
:10373000082239681846FEF7A5FC114B1B68002BC0
:1037400003D00F4B1B68F868984701F059FC0446FA
:103750003B691A1DFB680C3319461046FFF7BAFE89
:10376000204601F051FCFB6818461C37BD4690BD51
:1037700088D302000CD3020034D30200D0D202005E
:10378000D40A002090B583B000AF78607B68002B2E
:1037900005D140F2F51216491648FFF7B9FA7B68D1
:1037A0001B7A5BB2002B05DA4FF4FB72104912480A
:1037B000FFF7AEFA114B1B68002B03D00F4B1B68B1
:1037C000786898477B6800221A7201F019FC044659
:1037D0007B680C331846FFF796FE204601F014FC78
:1037E0007868FFF763FA00BF0C37BD4690BD00BF95
:1037F0009CD30200F8D2020038D30200D80A00207D
:1038000080B582B000AF78607B68002B05D14FF4A3
:10381000067208490848FFF77BFA7B681B7A5BB29F
:10382000002B01DA012300E0002318460837BD46CB
:1038300080BD00BFB0D30200F8D2020080B582B0D4
:1038400000AF78607B68002B05D140F22B2206493F
:103850000648FFF75DFA7B681B7A03F07F03DBB253
:1038600018460837BD4680BDCCD30200F8D202000E
:1038700080B586B000AF78600B46FB7000233B61DB
:1038800000237B610023FB60FB781846FFF756FEA0
:10389000F8607B68002B02D0FB68002B01D100236D
:1038A00035E001F0ADFBB860FEF73EFA0346002BB1
:1038B00009D019491948FFF7D3F840F249221649AF
:1038C0001748FFF725FAB86801F09EFB00F07CFA74
:1038D000FB685B687B6112E07B690C3B3B613B6989
:1038E000082279681846FEF7FFFB0346002B03D138
:1038F00000F080FA3B690AE07B691B687B61FB682A
:1039000004337A699A42E7D100F074FA002318462A
:103910001837BD4680BD00BFE0D302000CD30200C3
:1039200034D3020080B483B000AF78607B687A68DB
:103930005A607B685A687B681A6000BF0C37BD46C6
:103940005DF8047B704780B483B000AF7860396065
:103950007B685B683A681A607B685A683B685A60A3
:103960007B683A685A603B687A681A6000BF0C3717
:10397000BD465DF8047B704780B483B000AF7860CB
:103980007B681B687A6852685A607B685B687A68F3
:1039900012681A607B687A685A607B685A687B682C
:1039A0001A6000BF0C37BD465DF8047B704780B4D9
:1039B00083B000AF78607B681B687A689A420CBF5E
:1039C00001230023DBB218460C37BD465DF8047BAB
:1039D0007047FFFF80B584B000AF78607B68002B34
:1039E00004D15F221C491D48FFF792F97B689B6A4E
:1039F0001B78232B11D17B68DB691A467B689B6A95
:103A00009A420AD97B68DB691A467B689B6A194629
:103A10007B68DB6A0B449A420CD97B6819461048D4
:103A2000FFF71EF801F0ECFA0346FB60FB68002B81
:103A3000FCD10DE07B68DB691A467B689B6A20330A
:103A40009A4205D87B6819460648FFF709F8FFE750
:103A500000BF1037BD4680BD58D40200F0D302002D
:103A600004D4020020D40200B0B582B000AF786068
:103A7000094B1B68184601F0C9FD0346013B1C4673
:103A8000064B53F83430A3F114057B681C602B46B9
:103A900018460837BD46B0BDE80B0020E80A0020F4
:103AA00098B500AF094B00221A80002406E0E3001D
:103AB000074A13441846FFF735FF01341F2CF6DD83
:103AC000044B00221A6000BF98BD00BFEC0B002021
:103AD000E80A0020E80B002090B583B000AF3B1D42
:103AE0001846FFF7C1FF0446084B1C60204600F053
:103AF00033F9032384F8343004F11C03184601F031
:103B0000CCFA00BF0C37BD4690BD00BFF00B0020C3
:103B100080B586B000AF01F073FAF8605C4BB3F982
:103B20000030002B40F0AC805A4B1B68002B00F09B
:103B3000A78000233B613B1D1846FFF795FF786186
:103B4000554B1B6893F8343003F00703032B2CD13B
:103B5000514B1B6893F835301A467B689A4203D262
:103B60004D4B1B687B6115E04B4B1B6893F8353060
:103B70001A467B689A420BD1474B1B6893F8343046
:103B800003F00803002B03D1434B1B687B6101E06A
:103B900001233B61404B1B6893F834203E4B1B686C
:103BA00022F00802D2B283F834203B4B1B687A69BA
:103BB0009A4250D07B68DAB2384B1A70364B1B6889
:103BC000BB60354A7B691360354B1B68002B04D002
:103BD000334B1B687969B86898473B69002B02D062
:103BE000B86800F063F8786900F0B6F87B6993F87C
:103BF00034305BB223F007035BB243F003035BB2E4
:103C0000DAB27B6983F834207869FFF7E3FE254B4D
:103C10001B78DBB2002B14D1234B1B68002B03D085
:103C2000214B1B68B8689847BB681C331A467B69F0
:103C30001C331946104601F0EAF9F86801F0E4F97E
:103C400022E0BB681C331A467B691C3319461046B8
:103C500001F0DDF914E0104B1B68184600F07CF809
:103C60000D4B1B6893F834305BB223F007035BB253
:103C700043F003035AB2084B1B68D2B283F83420D6
:103C8000F86801F0C1F900BF1837BD4680BD00BF1C
:103C9000EC0B0020E80B0020F00B0020F40B0020C0
:103CA000F80B0020140A0020FC0B002090B583B014
:103CB00000AF78607B68002B05D140F2D222214909
:103CC0002148FFF725F801F09BF904461F4B1B68BC
:103CD0007A689A420ED17B6893F834305BB223F055
:103CE00007035BB243F003035BB2DAB27B6883F88D
:103CF000342020E07B6893F834305BB223F0070374
:103D00005BB243F001035BB2DAB27B6883F8342024
:103D10007B6893F83530DB000D4A1A447B68143316
:103D200019461046FFF70FFE7B689A6B094B1B681C
:103D30001343084A1360204601F066F900BF0C37B0
:103D4000BD4690BD74D40200F0D30200F00B0020F9
:103D5000E80A0020E80B002090B583B000AF78603F
:103D60007B68002B05D140F2333213491348FEF72C
:103D7000CFFF01F045F904467B6814331846FFF77E
:103D8000FBFD7B6893F83530DB000D4A1344184681
:103D9000FFF70DFE0346002B07D07B689B6BDA43D1
:103DA000084B1B681340074A1360204601F02CF9AA
:103DB00000BF0C37BD4690BD90D40200F0D3020086
:103DC000E80A0020E80B002098B500AF01F018F9D0
:103DD0000446074BB3F900309BB201339BB21AB2D1
:103DE000034B1A80204601F00FF900BF98BD00BFB9
:103DF000EC0B002098B500AF01F002F90446104B1F
:103E0000B3F900309BB2013B9BB21AB20C4B1A8043
:103E10000B4BB3F90030002B0CDC094B00221A804D
:103E2000204601F0F1F8074B1B68002B05D0FFF787
:103E30006FFE02E0204601F0E7F800BF98BD00BF2A
:103E4000EC0B0020F00B002080B400AF044BB3F962
:103E500000309BB21846BD465DF8047B704700BF3A
:103E6000EC0B002080B483B000AF78607B687A6888
:103E70005A607B685A687B681A6000BF0C37BD4681
:103E80005DF8047B704780B483B000AF78607B68D6
:103E90001B687A6852685A607B685B687A68126847
:103EA0001A607B687A685A607B685A687B681A6017
:103EB00000BF0C37BD465DF8047B704790B583B0FA
:103EC00000AF00F019F9786001F09AF804467868BC
:103ED000FFF742FF7B684C33184600F0E3FC7B6839
:103EE000042283F834207868FCF7A6FD204601F010
:103EF0008BF8FFF70DFE00BF0C37BD4690BDFFFFEE
:103F000090B585B000AF78607B68FB60FB68002BE4
:103F100004D1872219491A48FEF7FAFEFB6893F884
:103F2000343003F00703022B04D0882213491548CC
:103F3000FEF7EEFEF868FFF781FC0346012B04D084
:103F400089220E491048FEF7E3FE01F059F80446B5
:103F5000FB686FF001021A63FB6814331846FFF721
:103F600092FFF868FFF7A2FE204601F04DF8FFF738
:103F7000CFFD00BF1437BD4690BD00BF4CD6020038
:103F8000ACD40200C0D40200FCD4020080B586B0DC
:103F900002AFF860B9607A603B60FB681433184682
:103FA000FFF760FFFB687A681A62FB683A685A623A
:103FB000FB68BA699A62FB68FA69DA62FB68986A18
:103FC000FB68DB6A1A462321FDF7FCFEFB68186AD2
:103FD000FB68596AFB689A6AFB68DB6A043B1A440F
:103FE000244B01F0ABF80246FB68DA6197F8203009
:103FF0001F2B04D9BE2220492048FEF789FEFB680A
:1040000097F8202083F83520FB6800229A63FB682C
:104010000022DA63FB68002283F84020FB687A6A9A
:104020005A64FB687A6A9A64FB6800221A63FB6828
:10403000002283F83420FB6800229A67FB68002284
:10404000DA67FB6803F14C00F96800230193002351
:104050000093FB680A4A00F0E7FB0A4B1B68002B41
:1040600003D0084B1B68F8689847002318461037A0
:10407000BD4680BDBD3E00005CD6020040D50200BA
:10408000013F0000080C002080B588B004AFF86044
:10409000B9607A603B60FB68002B05D140F23112B9
:1040A00012491348FEF734FEBB69002B05D14FF4CB
:1040B00099720E490F48FEF72BFEBA680121F86885
:1040C000FFF760FA7B6A039397F820300293FB694D
:1040D0000193BB6900933B687A68B968F868FFF799
:1040E00055FF034618461037BD4680BD6CD602000A
:1040F000ACD4020064D5020080B400AF034B1B684F
:104100001846BD465DF8047B704700BFF00B0020E9
:1041100080B582B000AF78607B68002B05D14FF48A
:10412000B2721C491C48FEF7F3FD7B6893F83430EB
:1041300003F00703002B05D040F26512154917481C
:10414000FEF7E6FD7868FFF779FB0346012B05D003
:104150004FF4B3720F491248FEF7DAFD7B6893F80B
:1041600035301A46012393401A467B689A637B6870
:10417000022283F83420786800F03EFAFFF7BCFF93
:104180000346002B01D0FFF7C3FC00231846083775
:10419000BD4680BD7CD60200ACD402007CD50200B6
:1041A000FCD4020080B584B000AF78607B68002B3F
:1041B00005D140F28F1223492348FEF7A9FD786804
:1041C000FFF73CFB0346012B05D04FF4C8721D4995
:1041D0001E48FEF79DFD7868FFF712FB0346002B93
:1041E00005D140F2911217491948FEF791FD7B68FD
:1041F00093F8343003F00703042B01D100231CE0B3
:104200007B6893F8343003F00703002B02D0786802
:10421000FFF7A2FD00F0F4FEF8607B684C3318460F
:1042200000F040FB7B68042283F834207868FCF7B8
:1042300003FCF86800F0E8FE002318461037BD467E
:1042400080BD00BF90D60200ACD40200FCD40200B6
:10425000B4D5020080B58AB004AFF860B9607A6066
:104260003B60F9680120FFF721FA78617B69002B38
:1042700001D100231BE03868FEF7BCFC38613B69C4
:10428000002B04D17869FFF77DFA00230FE07B6AE9
:10429000039397F8203002933B6801933B690093A6
:1042A0007B68BA68F9687869FFF770FE7B69184621
:1042B0001837BD4680BDFFFF80B584B000AF786081
:1042C0007B68002B05D14FF4FB7223492348FEF78E
:1042D0001FFD7868FFF7B2FA0346012B05D040F2C4
:1042E000F7121D491E48FEF713FD7868FFF788FA9C
:1042F0000346002B05D04FF4FC7217491948FEF70E
:1043000007FD7B6893F8343003F00703042B01D1D9
:1043100000231CE07B6893F8343003F00703002B84
:1043200002D07868FFF718FD00F06AFEF8607B683D
:104330004C33184600F0B6FA7B68042283F8342028
:104340007868FCF779FBF86800F05EFE00231846F9
:104350001037BD4680BD00BFA4D60200ACD4020019
:10436000FCD40200E4D5020090B585B000AF7860BF
:10437000FFF7C2FEF860FB68002B05D140F23F2238
:104380001B491C48FEF7C4FCF868FFF757FA0346C0
:10439000012B05D04FF4107215491748FEF7B8FCF1
:1043A00000F02EFE0446FB6800221A63F86800F055
:1043B000BFF8FB684C333A1D0021184600F016FC8C
:1043C000FB684C33184600F0B5FA204600F01CFE9E
:1043D000FFF79EFBFB681B6B13F1020F02D1FB681A
:1043E00000221A63FB681B6B18461437BD4690BD4C
:1043F000B8D60200ACD40200FCD4020080B582B072
:1044000000AF78607868FFF7AFFF034618460837BB
:10441000BD4680BD80B584B000AF78607868FBF79A
:104420009BFFF860F868FFF79FFF034618461037B8
:10443000BD4680BD90B587B000AFF860B9607A60C6
:10444000FB68002B05D140F2D52236493648FEF7ED
:104450005FFCF868FFF7F2F90346012B05D040F244
:10446000D62230493148FEF753FCBB68022B09D0F5
:10447000BB68022B4FDCBB68002B34D0BB68012B20
:1044800036D048E000F0BCFD0446FB6893F83430B9
:1044900003F00703012B14D1F868FFF75DFC7B687C
:1044A0001A78FB6883F83520FB6893F835301A4694
:1044B000012393401A46FB689A63F868FFF7F6FBFE
:1044C0000DE07B681A78FB6883F83520FB6893F869
:1044D00035301A46012393401A46FB689A632046FA
:1044E00000F092FD18E0F868FFF712FE034614E0B2
:1044F000F868FFF785F90346012B04D1F868FFF748
:1045000051FE786103E0F868FFF7D6FE7861FFF7A7
:10451000FFFA7B6901E000BF002318461C37BD4647
:1045200090BD00BFC8D60200ACD40200FCD402008B
:1045300090B583B000AF78607B68002B05D140F266
:104540004B3228492848FEF7E3FB7868FFF776F9F5
:104550000346012B05D04FF4537222492348FEF73E
:10456000D7FBFFF7C9FD02467B68934205D040F2B6
:104570004D321C491E48FEF7CBFB7B6893F8343064
:1045800003F00704012C04D0032C02D04FF0FF33BA
:1045900024E000F035FD04467868FFF7DDFB7B681A
:1045A00093F834305BB223F007035BB243F00203AD
:1045B0005BB2DAB27B6883F834207B684C331846F0
:1045C00000F0CAFA204600F01FFD0A4B1B68002BC2
:1045D00003D0084B1B6878689847002318460C37AF
:1045E000BD4690BDDCD60200ACD40200FCD4020073
:1045F00030D60200000C002090B583B000AF786088
:104600007B68002B05D140F279321D491D48FEF729
:104610007FFB7868FFF712F90346012B05D040F2C3
:104620007A3217491848FEF773FB7B6893F83430E9
:1046300003F00703022B02D04FF0FF331BE000F022
:10464000DFFC04467B6814331846FFF71CFC7B68CC
:104650004C33184600F080FA7868FFF727FB2046B5
:1046600000F0D2FC094B1B68002B03D0074B1B68E2
:1046700078689847002318460C37BD4690BD00BFA8
:10468000F0D60200ACD40200FCD40200040C0020DE
:1046900080B483B000AF78607B687A685A607B68CA
:1046A0005A687B681A6000BF0C37BD465DF8047B12
:1046B000704780B483B000AF786039607B681B6856
:1046C0003A685A607B681A683B681A607B683A6887
:1046D0001A603B687A685A6000BF0C37BD465DF8C7
:1046E000047B704780B483B000AF78607B681B6840
:1046F0007A6852685A607B685B687A6812681A60E8
:104700007B687A685A607B685A687B681A6000BF69
:104710000C37BD465DF8047B704780B483B000AFB2
:1047200078607B681B687A689A420CBF012300237B
:10473000DBB218460C37BD465DF8047B704780B588
:1047400086B000AFF860B9607A603B60FB6897F8AC
:1047500020205A72FB685B7A23F00103DAB2FB680F
:104760005A72FB68BA68DA61FB687A681A62FB6899
:1047700000229A62FB683A685A6200237B610BE070
:104780007B690233DB00FA68134404331846FFF7F1
:104790007FFF7B6901337B617B69002BF0DD00BF0C
:1047A00000BF1837BD4680BD90B585B000AF7860BA
:1047B000396000F025FC04467868FFF7AEFF034639
:1047C000002B0CD17B681B68143BFB60FB689A6A6A
:1047D0003B681A60204600F017FC002304E02046E6
:1047E00000F012FC4FF0FF3318461437BD4690BD61
:1047F00080B584B000AF78600023FB600BE0FB68FD
:104800000233DB007A68134404331846FFF76AFF6B
:10481000FB680133FB60FB68002BF0DD00BF00BFCD
:104820001037BD4680BDFFFF80B586B002AFF8608F
:10483000B9607A603B60FB68002B05D140F20F1233
:1048400014491548FEF764FA7B68002B05D14FF434
:10485000887210491148FEF75BFABB696FF000429D
:10486000934205D340F211120A490D48FEF750FA5F
:10487000FB68BA680A211846FEF784FE3B7F009366
:10488000BB693A687968F868FFF759FF00BF1037CD
:10489000BD4680BD14D8020004D7020018D702001C
:1048A0002CD7020090B583B000AF78607B68002BF6
:1048B00005D14FF493721B491B48FEF729FA7B6818
:1048C0001846FEF7BBFF03460A2B05D040F227121D
:1048D00014491648FEF71CFA7B681846FEF790FF4D
:1048E0000346002B05D14FF494720E491048FEF791
:1048F0000FFA00F085FB04467868FFF779FF7B68C4
:104900005B7A23F00103DAB27B685A72204600F02A
:104910007BFB7B681846FEF79BFE002318460C378E
:10492000BD4690BD24D8020004D7020044D702003F
:1049300080D70200B0B588B000AF78607B68002BEC
:1049400005D14FF4CC727B497B48FEF7E1F97B68D7
:104950001846FEF773FF03460A2B05D040F2991262
:1049600074497648FEF7D4F9002400F049FB054667
:104970007868FFF73DFF7B685B7A23F00103DAB2CA
:104980007B685A726E4B1B68002B04D06C4B1B6803
:104990007A6810469847FBF795FC02467B685B6A8D
:1049A0001A447B689A627B685B7A03F00403002BED
:1049B00002D0644BBB6101E0634BBB61BB69BB6070
:1049C0000023FB6155E0FB699B0007F120021344C3
:1049D00053F8183C1B683B61FB69DB0014335B42F6
:1049E0003A691344FB60FB689A6A7B689B6A9A4247
:1049F00009D0FB689A6A7B689B6AD31A6FF0004201
:104A000093421FD300E000BFFB699B0007F1200227
:104A1000134453F8183C1A68FB699B0007F1200106
:104A20000B4443F8182CFB699B0007F12002134448
:104A300053F8182CFB69DB00B9690B445B689A4298
:104A4000C1D100E000BFFB69002B0FD0FB699B00C8
:104A500007F12002134453F8182CFB690133083284
:104A60009B0007F120010B4443F8182CFB6901332C
:104A7000FB61FB69002BD6D0344B1B680133334AF2
:104A80001360324B1B687B61BA687B68143319462C
:104A90001046FFF70EFE0223FB611EE07B6903F068
:104AA0000303002B1DD1FB69C3F101039B0007F138
:104AB0002002134453F8180CFB69C3F101030233BD
:104AC000DB007A68134404331946FFF7F2FD7B6973
:104AD0009B087B61FB690133FB61FB69012BDDD91D
:104AE00000E000BF7B685B7A43F00103DAB27B68C9
:104AF0005A727B685B7A03F00403002B0ED0144BD0
:104B00001B78012B0AD1134B93F8343003F00703C1
:104B1000022B03D10F48FFF76FFD0124284600F058
:104B200073FA002C01D0FEF7F3FF0023184620375C
:104B3000BD46B0BD34D8020004D7020044D70200FD
:104B4000E00A0020140C00200C0C0020A40E002011
:104B5000980000201C0C002090B583B000AF786056
:104B60007B68002B05D14FF404721C491C48FEF7EA
:104B7000CFF87B681846FEF761FE03460A2B05D086
:104B800040F2112215491748FEF7C2F87B685B7A9C
:104B900003F00103002B02D14FF0FF3319E0124B59
:104BA0001B68002B04D0104B1B687A68104698478E
:104BB00000F026FA04467868FFF71AFE7B685B7AF5
:104BC00023F00103DAB27B685A72204600F01CFA27
:104BD000002318460C37BD4690BD00BF44D80200E4
:104BE00004D7020044D70200E40A002090B585B043
:104BF00000AFF860B9607A60FB68002B05D14FF414
:104C00000D7234493448FEF783F8FB681846FEF706
:104C100015FE03460A2B05D040F235222D492F48B8
:104C2000FEF776F800F0ECF90446BB68052B47D890
:104C300001A252F823F000BF5B4C0000514C000071
:104C40007D4C00008D4C00009D4C0000B74C0000D6
:104C5000FB685A6A7B681A6033E07B681B686FF0F8
:104C60000042934205D340F23F221A491C48FEF706
:104C70004FF87B681A68FB685A6222E0FB685B7A2F
:104C800023F00203DAB2FB685A721AE0FB685B7A1F
:104C900043F00203DAB2FB685A7212E0FB685B7AF7
:104CA00003F00103002B03D07B6801221A6002E0AD
:104CB0007B6800221A60FB689A6A7B681A6000E0D1
:104CC00000BF204600F0A0F9002318461437BD4667
:104CD00090BD00BF54D8020004D7020044D70200A0
:104CE000E4D7020090B585B000AF3B461846FFF709
:104CF000CFFCFBF7E7FAF86000F082F904465FE0CA
:104D0000374B1B68143BBB60BB689B6AFA68D31ABD
:104D10006FF0004293425AD2324B1B68002B03D0F3
:104D2000304B1B68B8689847B868FFF761FDBB68EF
:104D30005B7A03F00203002B06D1BB685B7A23F099
:104D40000103DAB2BB685A72BB6803F114023B4636
:104D500011461846FFF7ADFCBB68DB69BA68126AFA
:104D600010469847FBF7AEFAF8601F4B1B68002B04
:104D700003D01D4B1B68B86898473B461846FFF7A1
:104D8000CCFC0346002B00D01AE0BB681433184655
:104D9000FFF7A8FCBB685B7A03F00203002B0FD07F
:104DA000BB685B7A03F00103002B09D0BB685B7A18
:104DB00023F00103DAB2BB685A72B868FFF7BAFD94
:104DC0000748FFF7AAFC0346002B99D000E000BF7C
:104DD000204600F019F900BF1437BD4690BD00BF52
:104DE0000C0C00209C0E0020A00E002090B585B079
:104DF00000AF3B461846FFF74BFC00F001F90446B4
:104E00006BE03D4B1B68143BFB60FBF75BFAB86043
:104E1000FB689B6ABA68D31A6FF00042934263D270
:104E2000364B1B68002B03D0344B1B68F86898473F
:104E3000F868FFF7DDFCFB685B7A03F00203002BE8
:104E400006D1FB685B7A23F00103DAB2FB685A7281
:104E5000FB6803F114023B4611461846FFF729FC94
:104E6000274B00221A70204600F0CEF8FB68DB6961
:104E7000FA68126A10469847224B1B68002B03D031
:104E8000204B1B68F868984700F0BAF804461C4BA2
:104E900001221A703B461846FFF73FFC0346002BE1
:104EA00000D01AE0FB6814331846FFF71BFCFB68C0
:104EB0005B7A03F00203002B0FD0FB685B7A03F0F0
:104EC0000103002B09D0FB685B7A23F00103DAB2FF
:104ED000FB685A72F868FFF72DFD0748FFF71DFCC5
:104EE0000346002B8DD000E000BF204600F08CF878
:104EF00000BF1437BD4690BD140C00209C0E00204E
:104F000098000020A00E002080B584B000AF78602B
:104F100007F1080319461248FFF746FC0346002B29
:104F200008D0FFF7E9F803461846FFF701FBFEF744
:104F3000EFFD11E0FBF7C6F9F860BA68FB68D31A19
:104F40006FF00042934207D2BA68FB68D31ABB6085
:104F5000BB681846FFF752FAFFF748FFD8E700BFD3
:104F6000140C002080B582B000AF00237B6009E004
:104F70007B68DB00074A13441846FFF789FB7B6810
:104F800001337B607B68002BF2D000BF00BF083785
:104F9000BD4680BD0C0C002080B586B004AF002358
:104FA0007B6009E07B68DB00104A13441846FFF77A
:104FB0006FFB7B6801337B607B68002BF2D00A2398
:104FC0000393042302934FF400730193084B00935F
:104FD0000023084A08490948FFF756F80748FFF731
:104FE00097F800BF0837BD4680BD00BF140C0020F5
:104FF0009C0C0020094F00000CD802001C0C002063
:10500000EFF3108072B6704780F310887047444AFF
:105010001368012B04D04FF001031360414A106064
:10502000414A116041484FF0805101607047EFF3F1
:10503000108272B63A48016851B34FF00001016026
:105040003848016891B1EFF309811EF0100F08BFD5
:1050500021ED108B21E9F00F4FF000041EF0100F2E
:1050600008BF012441F8044D006801602E49096819
:10507000096808C9B1E8F00F002B18BFB1EC108B1C
:1050800081F309884EF0100E002B18BF2EF0100E81
:1050900082F310884EF0040E704723490860EFF346
:1050A000148222F0040282F314881E494FF000009B
:1050B00008601B494FF0010008601D481D49D0F8E9
:1050C000002041EA0201016018484FF08051016060
:1050D00019480068006800BF80F3088861B662B6AE
:1050E000704700BFEFF308801EF0040F01D0EFF30C
:1050F000098020E9F00F40F804ED40F804ED1EF0BF
:10510000040F02D080F3098801E080F3088800B51D
:1051100000F0BAF95DF804EB4EF0040E70470000A1
:10512000B00E0020A80E0020AC0E002004ED00E020
:1051300020ED00E00000FFFF08ED00E080B489B042
:1051400000AFF860B9607A603B607B680433BB6194
:10515000BB6923F00703BB61BB69443BBB61BB690F
:105160007B610023FB6108E0FB699B007A691344C3
:10517000154A1A60FB690133FB61FB69102BF3D9F7
:10518000BA687B695A627B6900229A627B69002255
:10519000DA627B6900221A637B6900225A633A68EB
:1051A0007B699A63FA687B69DA637B694FF0807286
:1051B0001A647B6900221A60BB6918462437BD4611
:1051C0005DF8047B704700BFEFBEADDE80B500AF79
:1051D0002548FDF745FC254B1B889BB21946244802
:1051E000FDF73EFC214B1B889BB203F00103002B13
:1051F00002D02048FDF734FC1C4B1B889BB203F007
:105200000203002B02D01C48FDF72AFC174B1B8819
:105210009BB203F00403002B02D01848FDF720FCDA
:10522000124B1B889BB203F00803002B02D01448DA
:10523000FDF716FC0D4B1B889BB203F48073002B0B
:1052400002D01048FDF70CFC084B1B889BB203F4FE
:105250000073002B02D00C48FDF702FC0B48FDF751
:10526000FFFB00BF80BD00BF68D802002AED00E050
:1052700078D8020090D802009CD80200A8D802007A
:10528000B0D80200B8D80200C4D80200D0D80200BA
:1052900080B500AF2648FDF7E3FB264B1B78DBB259
:1052A00019462548FDF7DCFB224B1B78DBB203F0E7
:1052B0000103002B02D02148FDF7D2FB1D4B1B78C8
:1052C000DBB203F00203002B02D01D48FDF7C8FB40
:1052D000184B1B78DBB203F00403002B02D01948F3
:1052E000FDF7BEFB134B1B78DBB203F00803002B6A
:1052F00002D01548FDF7B4FB0E4B1B78DBB203F070
:105300001003002B02D01148FDF7AAFB094B1B78B4
:10531000DBB25BB2002B06DA0D4B1B6819460D4859
:10532000FDF79EFB02E00C48FDF79AFB00BF80BD35
:10533000D4D8020029ED00E0E0D80200F8D802003D
:1053400004D9020010D9020020D902002CD9020091
:1053500038ED00E034D90200D0D8020080B500AFAB
:105360002148FDF77DFB214B1B78DBB21946204815
:10537000FDF776FB1D4B1B78DBB203F00103002B1E
:1053800002D01C48FDF76CFB184B1B78DBB203F016
:105390000203002B02D01848FDF762FB134B1B7869
:1053A000DBB203F00803002B02D01448FDF758FBD2
:1053B0000E4B1B78DBB203F01003002B02D0104819
:1053C000FDF74EFB094B1B78DBB25BB2002B06DA14
:1053D0000C4B1B6819460C48FDF742FB02E00B48DA
:1053E000FDF73EFB00BF80BD44D9020028ED00E080
:1053F00058D9020070D902007CD9020088D9020075
:1054000094D9020034ED00E0A0D90200D0D8020007
:1054100080B500AF164B1B6803F00203002B02D0CF
:105420001448FDF71DFB124B1B6803F08043002B53
:1054300014D0114B1B78DBB2002B01D0FFF728FFF3
:105440000E4B1B78DBB2002B01D0FFF787FF0C4B14
:105450001B889BB2002B01D0FFF7B8FE044B1B68E2
:10546000002B02DA0748FDF7FBFA00BF80BD00BF42
:105470002CED00E0B0D9020029ED00E028ED00E0BD
:105480002AED00E0C8D9020080B586B000AF786090
:105490007B6828337B617B6804333B61474B1B6827
:1054A000002B07D0454B1B6878699847F860FB686C
:1054B000002B7ED03B691B6C19464148FDF7D0FAA2
:1054C0003B695B6A19463F48FDF7CAFA3B699B6A2C
:1054D00019463D48FDF7C4FA3B69DB6A19463B486B
:1054E000FDF7BEFA3B691B6B19463948FDF7B8FA60
:1054F0003B695B6819463748FDF7B2FA3B699B6820
:1055000019463548FDF7ACFA3B69DB681946334864
:10551000FDF7A6FA3B691B6919463148FDF7A0FA69
:105520003B695B6919462F48FDF79AFA3B699B690D
:1055300019462D48FDF794FA3B69DB6919462B485B
:10554000FDF78EFA3B691B6A19462948FDF788FA70
:105550003B695B6B19462748FDF782FA3B699B6BF9
:1055600019462548FDF77CFA3B69DB6B1946234851
:10557000FDF776FA7B681B6803F00403002B09D063
:10558000FEF7BAFD034619461D48FDF769FA06F015
:10559000EDF902E01B48FDF763FA7B681B6803F036
:1055A0001003002B02D11848FDF75AFAFFF730FF1D
:1055B000FEE700BF1837BD4680BD00BFB40E002017
:1055C000D8D90200E8D90200F8D9020008DA0200AE
:1055D00018DA020028DA020038DA020048DA02009B
:1055E00058DA020068DA020078DA020088DA02008B
:1055F00098DA0200A8DA0200B8DA0200C8DA02007B
:10560000D8DA0200F8DA020014DB020080B483B0BA
:1056100000AF78607B6893FAA3F3B3FA83F37A68F8
:10562000002A01D14FF0FF33013318460C37BD4635
:105630005DF8047B7047FFFF80B582B000AF1F4B61
:105640001B68002B01D0002334E004237B607B68BF
:105650001B4A13607B689B0019460120FDF708FB7D
:105660000346174A5360164B5B68002B0BD1154855
:10567000FDF7F6F91448FDF7F3F91448FDF7F0F9D2
:105680004FF0FF3316E0802200211148FCF79AFB0F
:10569000012210491048FBF7F7FD1048FDF7E0F92B
:1056A0000F48FDF7DDF90948FDF7DAF9034B012250
:1056B0001A60002318460837BD4680BDE40E00205E
:1056C000B80E002038DB02004CDB02006CDB02006D
:1056D000E80E002074DB0200C00E002080DB020018
:1056E00094DB0200B0B5AAB002AF786039604FF029
:1056F000FF33C7F898300023C7F894303B68C7F8E9
:1057000088301023FB65002387F84F30A64B07F144
:105710001C041D460FCD0FC40FCD0FC495E80F001C
:1057200084E80F000023C7F89030D7F88830DB6B8F
:10573000C7F884307B68002B02D07868FDF7B6FA92
:10574000D7F88430002B04D0D7F884309B68002B26
:1057500004D14FF0FF33C7F8943007E1D7F8843015
:10576000DB681B6891489847C7F88000D7F88030FD
:10577000002B04D14FF0FF33C7F89430F6E0D7F890
:1057800084309B68C7F88C30D7F88C301B680022B7
:10579000022102209847C7F89800D7F89830002BCC
:1057A00004DA4FF0FF33C7F89430DFE0022387F8C4
:1057B00071304AF21F53A7F87230D7F880301B6956
:1057C0001B681B687B6707F1700308330822002100
:1057D0001846FCF7F7FA4FF002024FF00003C7E952
:1057E00018230023BB66D7F88C305C6A07F160038E
:1057F0001022009241F2060240F6FF71D7F898009D
:10580000A047D7F88C305C6A07F160031022009241
:1058100041F2050240F6FF71D7F89800A04707F162
:105820000C03102200211846FCF7CCFA07F10C00FB
:105830005F4B604A1021FDF791F80023C7F89C30B8
:1058400019E007F11C02D7F89C309B00D11807F132
:105850000C0303221846FCF7BAFB0346002B05D1C4
:10586000D7F89C300133C7F8903008E0D7F89C3067
:105870000133C7F89C30D7F89C300B2BE1D9D7F80F
:105880009030002B03D0D7F890300C2B04D94FF078
:10589000FF33C7F8943069E007F150030C22002170
:1058A0001846FCF78FFA002387F850300023C7F81A
:1058B0009C3018E0D7F88820D7F89C301344213367
:1058C0001978D7F89030DAB2D7F89C3001330A440F
:1058D000D2B207F1A0010B4403F8502CD7F89C304A
:1058E0000133C7F89C30D7F8883093F820301A4637
:1058F000D7F89C309342DDDB042387F8593001232D
:1059000087F85A30002387F85B30D7F88C309C69D1
:1059100007F150011023019307F170030093002356
:105920000C22D7F89800A047D7F88C30DC6907F133
:105930004F0107F15C03019307F17003009300230B
:105940000122D7F89800A047C7F89400D7F8943000
:10595000002B08DB97F84F30002B06D14FF0FF33B8
:10596000C7F8943002E000BF00E000BFD7F89430E1
:10597000002B05DD0121D7F8880001F015FC04E0BB
:105980000021D7F8880001F00FFCD7F89830002BE1
:1059900005DBD7F88C305B68D7F89800984700BFD4
:1059A000A037BD46B0BD00BFE8DB0200C4DB02008B
:1059B000D8DB0200E4DB020080B584B000AF786081
:1059C0007B68002B05D140F21D1216491648FDF7E1
:1059D0009FF90023FB6044210120FDF749F9F8609D
:1059E000FB68002B0ED11148FDF73AF87B680433B1
:1059F00019460F48FDF734F80E48FDF731F84FF01F
:105A0000FF330AE07A680C49F8680CF02FFD4FF478
:105A10007A71F8680CF0DEFD002318461037BD4699
:105A200080BD00BF78DD020018DC020020DC02002F
:105A300034DC02006CDB0200E556000080B584B067
:105A400000AF7860134BFB607B68002B05DBFB68C5
:105A50001B681A467B68934201DB002316E0FB6853
:105A60005A687B689B0013441B681B6845F610222C
:105A7000934205D040F2551207490848FDF748F90E
:105A8000FB685A687B689B0013441B6818461037F4
:105A9000BD4680BDB80E002098DD02006CDC02001F
:105AA00080B582B000AF4FF0FF310848FBF7F6FC3D
:105AB00078607B68002B05D04FF4B3720449054829
:105AC000FDF726F900BF0837BD4680BDC00E002097
:105AD000A8DD02009CDC020080B500AF0248FBF7A5
